:100000008831C92C0000CC303A1025173633202611
:100010006F1DA0122E1B6610F330741DA012641009
:1000200068326F383A102536E4068A068A060A00D6
:10003000C2274F2AA010A0068A068A060A00CC30E2
:100040003A102517363320266F1DA0122E1B66107E
:10005000F330741DA012641068326F383A102536E0
:10006000E4060A00111E32282500600823009A00C9
:10007000200008000B088B132300951715140000AF
:100080000000891B8B1713087F3903198628250068
:10009000D200230011082500D300230012082500F8
:1000A000D4005208E000200032202500530823002D
:1000B000910025005408230092000B088B1395171C
:1000C000151400000000891B8B17130D140D7F39C8
:1000D000031986282500D200230011082500D3002B
:1000E000230012082500D4005208E000200032202E
:1000F0002500530823009100250054082300920096
:10010000910A0319920A20003A282300883120001E
:10011000152D911E892823001D082000A000230012
:100120001908F8002000A01C992823001D121D1694
:10013000200088315E2D21308500C1308400000808
:100140000319B0280530F800F701F70BA528F80BC4
:10015000A4282E30F700F70BAB28AE28800BA2287E
:10016000080025005808403C0318C3285808463C9E
:10017000031CC328413058020A3EFA01F8007A08ED
:10018000F900DA28DA285808603C0318D4285808FF
:10019000663C031CD428613058020A3EFA01F8007C
:1001A0007A08F900DA28DA2830305802FA01F80023
:1001B0007A08F9002000080025005708FA005608C0
:1001C00084007A08850080080319FF285708FA0080
:1001D000560884007A0885000008DA005908FA00F9
:1001E000580884007A08850000085A02031DFF2879
:1001F000D60A0319D70AD80A0319D90ADD285708DD
:10020000FA005608840057088500FA010008F80033
:100210007A08F9002000080025006D082F3C03181B
:1002200015296D08393C03181729003018290130A9
:10023000F8002000080020302600AE00AA01AB0123
:10024000AC01AD012308FA002208F9002108F800EA
:100250002008F7000310771C3B292408AA0725086B
:100260000318250FAB0726080318260FAC0727082D
:100270000318270FAD07AD0CAC0CAB0CAA0CFA0C95
:10028000F90CF80CF70CAE0B2A2920000800250009
:10029000E901E801E701E6016508FA006408840065
:1002A0007A0885000008EC00ED0020000C21F80819
:1002B000031998292600A301A201A1010A30A00078
:1002C000250069082600A700250068082600A6006A
:1002D000250067082600A500250066082600A40062
:1002E00020001B217A082500EF007908EE0078082D
:1002F000ED007708EC006508FA006408E40A0319C9
:10030000E50A84007A0885000008EC070030ED3D1E
:10031000EE3DEF3D30306C02E60000306D3BE70013
:1003200000306E3BE80000306F3BE9004C292000B4
:1003300025006608F7006708F8006808F9006908F2
:10034000FA0020000800F701F80125005F080310FB
:100350006018F707F70CF80CE018F707F70CF80C23
:100360006019F707F70CF80CE019F707F70CF80C11
:10037000601AF707F70CF80CE01AF707F70CF80CFF
:10038000601BF707F70CF80CE01BF707F70CF80CED
:100390002000080020302500D7006030D60058101B
:1003A0005708FA00560884005708850000082D3CBD
:1003B00003195814581CDF29D60A0319D70A5708FD
:1003C000E5005608E4002000472105082500DF006D
:1003D0000408DE002600A301A201A1016430A000F0
:1003E0007A08A7007908A6007808A5007708A40075
:1003F00020001B2125005F0885005E0884007A0824
:10040000DC007908DB007808DA007708D9005708A3
:10041000FA0056088400570885000008DE00ED0049
:1004200020000C21F80803191B2A2500D60A0319FD
:10043000D70A072A200025005708FA00560884002A
:100440007A08850000082E3C031D632A56088400A4
:100450005708850001310008DE00ED0020000C2166
:10046000F8080319642A25005608840057088500F7
:10047000013130300002DE000A30DF005E08E000AB
:100480002000A32178082500D9070030DA3DDB3DA4
:10049000DC3D560884005708850002310008DE0064
:1004A000ED0020000C21F8080319642A25005608E5
:1004B000840057088500023130300002D90700302F
:1004C000DA3DDB3DDC3D20002500581C772A590829
:1004D000003CF7000030F8005A08F83B0030F90003
:1004E0005B08F93B0030FA005C08FA3B7F2A5908A8
:1004F000F7005A08F8005B08F9005C08FA002000D1
:10050000080024082600A300200023082600A200DB
:10051000200022082600A100200021082600A000BB
:10052000A701A6010330A500E830A40020001B218C
:10053000080083189F2A21308500E5308400F701E8
:10054000F801F901FA012600A501A601A701A801F9
:1005500023082204210420040319E02A2030A900E2
:1005600003102500EC0DED0DEE0DEF0D2600A50D91
:10057000A60DA70DA80D23082802031DC92A2208CD
:100580002702031DC92A21082602031DC92A2008A3
:100590002502031CDA2A2008A5022108031C210FCA
:1005A000A6022208031C220FA7022308031C230F04
:1005B000A8020314F70DF80DF90DFA0DA90BB02AD6
:1005C000250880002608813F2708823F2808833FAE
:1005D0002000080020302500E5006030E400200005
:1005E00047217A082500DB007908DA007808D9006D
:1005F0007708D8000508E5000408E40083142130DA
:100600008500D63084005B08EF005A08EE005908D8
:10061000ED005808EC002600A301A201A1016430FE
:10062000A0002000992225006608F7006708F8005E
:100630006808F9006908FA00650885006408840004
:100640006908ED006808EC006708EB006608EA003E
:100650000508EF000408EE0069082600A300250045
:1006600068082600A200250067082600A1002500D2
:1006700066082600A000A7010130A6008630A5006C
:10068000A030A40020001B2125006F0885006E0803
:1006900084007A08DF007908DE007808DD0077083A
:1006A000DC002030D7006030D6005708FA0056082A
:1006B0008400570885000008E400ED0020000C21AC
:1006C000F8080319692B2500D60A0319D70A552BF8
:1006D000200025005708FA00560884007A08850093
:1006E00000082E3C031DD92BE301E2012730E10075
:1006F0001030E000D60A0319D70A5708FA00560846
:1007000084007A0885000008E400ED0020000C2138
:10071000F8080319DA2B25005708FA005608840058
:100720005708850030300002E4000508E6000408A0
:10073000E50063082600A300250062082600A20049
:10074000250061082600A100250060082600A00001
:10075000A701A601A501250064082600A400200029
:100760001B21250066088500650884007708DC07E2
:100770007808DD3D7908DE3D7A08DF3D83106308A7
:10078000EF006208EE006108ED006008EC00260052
:10079000A301A201A1010A30A000200099227A0839
:1007A0002500E3007908E2007808E1007708E0001E
:1007B0007A2B2000831025005B08EF005A08EE001A
:1007C0005908ED005808EC002600A301A201A10180
:1007D0006430A000200099227A082500E7007908FB
:1007E000E6007808E5007708E40067082600A30023
:1007F000250066082600A200250065082600A10045
:10080000250064082600A000A7010F30A600423092
:10081000A5004030A40020001B217A082500E70035
:100820007908E6007808E5007708E40003305C0703
:10083000E80000305D3DE90000305E3DEA00003038
:100840005F3DEB0083106B08EF006A08EE0069085B
:10085000ED006808EC002600A301A201A10106300A
:10086000A0002000992225006408F7076508F83DDC
:100870006608F93D6708FA3D20000800701CE82C66
:10088000210030082500D8002000B1207908FA00A6
:100890007808F900780D2500D6007A0DD700D60D1E
:1008A000D70DD60DD70DD60DD70DF030D6052100BA
:1008B00031082500D8002000B1207808250056070F
:1008C000D40020006F0825005402031DE42CF01C06
:1008D000E42C21002708A3002608A2002508A10077
:1008E0002408A0002F08AB002E08AA002D08A9009C
:1008F0002C08A8007108013A20000319832C013A42
:100900000319B42CE02C3208AE003108AD003008D9
:10091000AC002F08AB003A08B6003908B50038081B
:10092000B4003708B3004208BE004108BD004008CB
:10093000BC003F08BB004A08C6004908C50048087B
:10094000C4004708C3005A08D6005908D500580803
:10095000D4005708D3006208DE006108DD0060089B
:10096000DC005F08DB00E02C5208CE005108CD000F
:100970005008CC004F08CB003208AE003108AD0063
:100980003008AC002F08AB004208BE004108BD0093
:100990004008BC003F08BB004A08C6004908C50023
:1009A0004808C4004708C3006E08EC006D08EB005F
:1009B0006A08E6006908E5006808E4006708E300E3
:1009C0000130F800BC2E25000030F8002000BC2EBD
:1009D000F208031D132D20302500D7006030D6000B
:1009E0002030D9006F30D8002000DC20780879044E
:1009F000031DFD2C0130F100102D20302500D70003
:100A00006030D6002030D9007530D8002000DC20BE
:100A100078087904031D0E2DF101102D0230F1002C
:100A20000030F800BC2E7108023C0319B82E2100DA
:100A3000B008031D1D2D2000B82E710EF700F70D14
:100A4000E030F70577087204FF3ED73E0318B92E51
:100A5000293E2000BE2ECA217A08B2007908B100D2
:100A60007808B0007708AF0081227A082100A7003B
:100A70007908A6007808A5007708A400B92EF01020
:100A800021003008413C0319F014B92EEA227A08FB
:100A9000C2007908C1007808C0007708BF00812231
:100AA0007A082100AF007908AE007808AD00770819
:100AB000AC00B92E21003008533C031D6C2D2000E2
:100AC000BF09C009C109C209BF0A0319C00A031935
:100AD000C10A0319C20A2100B92EEA227A08CA0003
:100AE0007908C9007808C8007708C7002100B92E26
:100AF00021003008573C031D8A2D2000C709C80972
:100B0000C909CA09C70A0319C80A0319C90A031976
:100B1000CA0A2100B92ECA217A08DA007908D90058
:100B20007808D8007708D7002100B92ECA217A08A2
:100B3000E2007908E1007808E0007708DF00210092
:100B4000B92E20302500E5006030E4002000472168
:100B50007A08BA007908B9007808B8007708B700B1
:100B60002100B92EF01021003008303C031CF01495
:100B7000B92E20302500D7006030D600DB01D90126
:100B80000A30DA00D80156085704031DCA2D003078
:100B9000F8009C2E5B08DB0A560784000030573DA6
:100BA00085000008DC005C082D3C031DE32D0130AE
:100BB000D9005B08DB0A560784000030573D8500EA
:100BC0000008DC00F02D5C082B3C031DF02D5B08B9
:100BD000DB0A560784000030573D85000008DC0022
:100BE0005C082F3C0318922E5C08393C031C922EA3
:100BF0005C08303C031D1C2E5B0856078400003047
:100C0000573D85000008783C0319102E5B085607F5
:100C100084000030573D85000008583C031D1C2E01
:100C20001030DA00DB0A5B08DB0A5607840000306C
:100C3000573D85000008DC005A080A3C031D402E81
:100C40005C082F3C03183F2E5C08393C031C3F2EE8
:100C50000A30DF005808E0002000A32178082500B2
:100C6000DE0030305C025E07D8005B08DB0A560706
:100C700084000030573D85000008DC00202E922EB5
:100C80005A08103C031D922E5C08603C03184F2E3E
:100C90005C087A3C031C4F2E5C08DF39502E5C0840
:100CA000DC005C082F3C0318592E5C08393C031803
:100CB000612E5C08403C0318922E5C08463C031CE5
:100CC000922E5C082F3C0318722E5C08393C031CE2
:100CD000722E580EDE00F030DE0530305C025E070A
:100CE000D8007B2E580EDE00F030DE0541305C026D
:100CF0000A3E5E07D8005B08DB0A56078400003016
:100D0000573D85000008DC005C08603C03188F2E0E
:100D10005C087A3C031C8F2E5C08DF39902E5C083F
:100D2000DC00512E590B9A2E5A080A3C031D9A2EAC
:100D3000D809D80A5808F8002000EE017808ED001C
:100D40002100B92ECA217A08EA007908E90078085A
:100D5000E8007708E7002100B92ECA217A08D200FE
:100D60007908D1007808D0007708CF002100B92E8B
:100D700021000030F80020008031102F0A108A1462
:100D80000A1582072B2D462D5A2D6D2D782DB22D4B
:100D9000B92DA22EAD2EB82EB82EB82EB82EB82E44
:100DA000B82EB82EB82EB82EB82EB82EB82EB82E13
:100DB000B82EB82EB82EB82EB82EB82EB82EB82E03
:100DC000B82EB82E2B2D3F2D462D5A2D6D2D782D5A
:100DD0008B2D962DA12D2500521051082C3A200064
:100DE0000319FF2E213A0319032F073A0319032F82
:100DF000203A0319032F0E3A0319232F322F25000F
:100E000051082000EF0673080E3C031C152F6030BC
:100E100073078400203085000318850A80013E2C6A
:100E200025005210781852142000F20AF3017010B5
:100E3000250051082A3C0319701400305218013063
:100E4000F8004D2F2000F3017308F200EF0102308B
:100E5000F1007010F0100030250052180130F80039
:100E60004D2F200073080D3C031C422F7308F30A1A
:100E7000603E8400203085000318850A2500510853
:100E8000800020007018482F250051082000EF0630
:100E90000030250052180130F80088312000A92DBB
:100EA000B630F700FA01F901F80125006008610485
:100EB00062046304031D5E2FF7016B2F0310F81B00
:100EC0006A2FE00DE10DE20DE30DFA0DF90DF80DBD
:100ED000F70B5E2FF8132000080025005108D800FA
:100EE0005508D806D81F792F03110310D11B0314FE
:100EF000AC2F5108D8005408D9005008D902031962
:100F0000872FD81FAC2F0308013A8300AC2F550858
:100F1000D9005108D9020319932FD81FAC2F030809
:100F2000013A8300AC2F5608D9005208D9020319A0
:100F30009F2FD81FAC2F0308013A8300AC2F57080E
:100F4000D9005308D9020319AB2FD81FAC2F0308BF
:100F5000013A8300AC2F0310200008002500590837
:100F6000F80158020318B72F5808F700C32FF701EC
:100F70000830DA00D80DF70D590877020318F7008A
:0A0F8000F80DDA0BBA2F200008006C
:10100000250060080319C728EE0064080319C728E3
:10101000EE0203180C2811287F30EE070318C728AA
:1010200017288130EE02031CC7280319C7286E0851
:10103000F700F801F901FA01ED016108EC00EC1785
:101040006208EB006308EA001930EE006708EA0264
:1010500003183A280130EB0203183A28EC0203186F
:101060003A28ED0203183A28ED0AEC0AEB0A670861
:10107000EA076C286608EB02031855280130EC02D9
:1010800003185528ED0203185528ED0AEC0A6608E6
:10109000EB076708EA07031C6C28EB0A031D6C28A2
:1010A000EC0A031D6C28ED0A6C2865088038EC02F8
:1010B00003186B280130ED0203186B28ED0A650850
:1010C0008038EC076608EB07031C4928EC0A031D6F
:1010D0004928ED0A49287A14EE0B6F287A28031064
:1010E000EA0DEB0DEC0DED0D0310FA0DF90DF80DF9
:1010F000EF0D26286F1C82280310F80CF90CFA0C4F
:10110000EF0C8528F7030319C728EF1BAE2803103F
:10111000EA0DEB0DEC0DED0D6708EA0203189A28B5
:101120000130EB0203189A28EC0203189A28ED020A
:10113000031CBD286608EB020318A5280130EC0249
:101140000318A528ED02031CBD2865088038EC02B1
:101150000318AE280130ED02031CBD28FA0A031D56
:10116000BD28F90A031DBD28F80A031DBD28F70A8A
:101170000319C728F80CF90CFA0C6108EE00650891
:10118000EE06EE1FC528F817CB28F813CB28F70179
:10119000F801F901FA012000080021302500DF00E4
:1011A000C630DE002130E100CA30E0005508E3001F
:1011B0005408E2005E085F040319F2285F08FA0091
:1011C0005E0884005F08850020003B088000013134
:1011D0003C08800001313D08800001313E0880005C
:1011E0003D3125006008610403190A296108FA00ED
:1011F00060088400610885002000430880000131F8
:101200004408800001314508800001314608800013
:101210003D3125006208630403195A296308FA0066
:101220006208E4006308E5002100280F2329290F44
:1012300023292A0F23292B0F2329FF30F700F80039
:10124000F900FA00452980312000812288317A088E
:101250002500E9007908E8007808E7007708E6004B
:101260002100280825006602F70021002908250032
:10127000673BF80021002A082500683BF90021009F
:101280002B082500693BFA0021007A082500E900B7
:101290007908E8007808E7007708E6006508850027
:1012A00064088400660880006708813F6808823F00
:1012B0006908833F5108FA005008840051088500EE
:1012C000560F75295708C93C031D752958089A3CC3
:1012D000031D752959083B3C031D75298830F7000B
:1012E0007A30F800F901FA0194295908E300580806
:1012F000E2005708E1005608E00080312000502746
:1013000088317A082500E3007908E2007808E100D6
:101310007708E000E7012430E6007430E500923001
:10132000E400200000202500770880007808813F35
:101330007908823F7A08833F5308FA0052088400F4
:1013400053088500560FB7295708C93C031DB72914
:1013500058089A3C031DB72959083B3C031DB7297F
:101360008830F7007A30F800F901FA01D6295D08D3
:10137000E3005C08E2005B08E1005A08E00080310D
:101380002000502788317A082500E3007908E20020
:101390007808E1007708E000E7012430E6007430C7
:1013A000E5009230E400200000202500770880004E
:1013B0007808813F7908823F7A08833F883120008E
:1013C000D42D0B088B132300951715140000000073
:1013D000891B8B170318162A13087F392500D200A2
:1013E000230011082500D300230012082500D40093
:1013F0005208E00080312000322088312500530857
:101400002300910025005408230092000B088B1341
:101410009517151400000000891B8B172500D00BB1
:10142000122A142A2300162A3B2A2300130D140D16
:101430007F392500D200230011082500D3002300A6
:1014400012082500D4005208E0008031200032202C
:1014500088312500530823009100250054082300FB
:101460009200910A0319920A03102500D00B392A21
:101470003B2A2000E1292000080004082500D800AC
:101480005408DA000319D02A5308E3005208E20096
:101490005108E1005008E000E701E6012030E500D6
:1014A0008230E40060080319C22AEB0064080319C3
:1014B000C22AEB070318632A7F30EB02031CC22AFF
:1014C0000319C22A672A8130EB070318C22A6B0866
:1014D000F700F801F901FA016108EF00EF1762085F
:1014E000EE006308ED001830EB00EC016D1C902A53
:1014F0006708FA07031C822AF90A031D822AF80AE0
:101500000319EC176608F907031C892AF80A03195E
:10151000EC176508E200E2176208F8070318EC17F9
:10152000EC0DF80CF90CFA0CEF0CEE0CED0C0310B2
:10153000EB0B752A0130F7070318C22AF81BA72AFC
:10154000EF0DFA0DF90DF80DF7030319C22AEF1F7D
:10155000B82AFA0A031DB82AF90A031DB82AF80A9C
:10156000031DB82AF80CF90CFA0CF70A0319C22A61
:101570006108EC006508EC06EC1FC02AF817C62AC3
:10158000F813C62AF701F801F901FA017A08D30025
:101590007908D2007808D1007708D000DA0B442A05
:1015A0005308E3005208E2005108E1005008E0004F
:1015B0006008B63CE000FA016108E400E11703109E
:1015C000E10CE20CE30CFA0CF90CF80CF70CE00B54
:1015D000DF2AE41FF62AF709F809F909FA09F70AD8
:1015E0000319F80A0319F90A0319FA0A7A08D30049
:1015F0007908D2007808D1007708D000D31F0D2BCE
:10160000D803D816D009D109D209D309D00A0319B1
:10161000D10A0319D20A0319D30A3B30DF009A30EA
:10162000DE00CA30DD00DC010A30DA00540803199C
:10163000D80A831421308500C03084005308EF009D
:101640005208EE005108ED005008EC005F0826003B
:10165000A30025005E082600A20025005D082600E4
:10166000A10025005C082600A000803120009922FE
:1016700088317808F708031D542B2500540A5A02B4
:10168000031D442B2000542B58080319572B0F39E6
:101690005A0203194D2B0318972BD81B972B581B55
:1016A000572B20308F2B200020302500D805D81E46
:1016B000692BD8125408031DD8037708D8002D30A1
:1016C000E000803120003220883125005808F700E2
:1016D000D80154085A02031D7B2B7708D8002E30FE
:1016E000E000803120003220883125005808F700C2
:1016F0002030D80500303030D81E8F2BD812540837
:10170000031DD8037708D8002D30E0008031200079
:101710003220883125005808F700D8013030F7070B
:101720007708E000803120003220883125008310C6
:101730005F08EF005E08EE005D08ED005C08EC005D
:101740002600A301A201A1010A30A00080312000DF
:10175000992288317A082500DF007908DE007808B0
:10176000DD007708DC00DA0B192B200008002030A0
:101770002500511E3030D4005008F700D01FC82B70
:10178000F709F70A7708D0002D30D400D11751148B
:101790005008D8006430D90080312000AE2788314D
:1017A00077082500D00030307807D5005008D800E1
:1017B0000A30D90080312000AE27883130307707D9
:1017C0002500D70030307807D6005408F7003030B5
:1017D00055020319EF2BD114D11B5115032C5408BA
:1017E000D5002030D400303056020319FB2B5114A1
:1017F000D11BD114032C031D5114031D032C5508B8
:10180000D6002030D50051190A2CD118112C5118AE
:10181000182C1F2C5408E000803120003220883121
:1018200025005508E0008031200032208831250055
:101830005608E0008031200032208831250057080A
:10184000E00080312000322088318831902E040859
:101850002500D800D31F392CD803D816D009D109B8
:10186000D209D309D00A0319D10A0319D20A0319DC
:10187000D30A3B30DF009A30DE00CA30DD00DC01E5
:101880000A30DA00831421308500C0308400530808
:10189000EF005208EE005108ED005008EC005F0820
:1018A0002600A30025005E082600A20025005D0892
:1018B0002600A10025005C082600A0008031200041
:1018C000992288317808F708031D7D2C25005A08D5
:1018D000013A031D6D2C20007D2C58080319802C23
:1018E0000F395A020319762C0318A82CD81BA82CE0
:1018F000581B802C2030A02C200020302500D8053B
:10190000D81E8F2CD8127708D8002D30E0008031F7
:1019100020003220883125005808F700D8013030E7
:10192000D81EA02CD8127708D8002D30E0008031C6
:1019300020003220883125005808F700D8013030C7
:10194000F7077708E0008031200032208831250039
:1019500083105F08EF005E08EE005D08ED005C0894
:10196000EC002600A301A201A1010A30A0008031F1
:101970002000992288317A082500DF007908DE00EE
:101980007808DD007708DC00DA0B422C8831200073
:10199000A82E7A30210099002000A00123009F1575
:1019A000A0309B0001309C00A6309E0090309D002E
:1019B0002000A401A301A201A1017011F5012500DD
:1019C000C401C30123008C018D018E012000A501FB
:1019D000A60147302100BF005030C0005230C10086
:1019E0004D30C2004330C300C4014730C500503001
:1019F000C6004730C700C8004130C900CA010A30DC
:101A00002500E00080312000322088310A30250096
:101A1000E00080312000322088311830230091000E
:101A200000309200803120003A2888310A302500A9
:101A3000E00080312000322088310A302500E000AB
:101A400080312000322088310A302500E0008031CA
:101A50002000322088310A302500E000803120004B
:101A6000322088310A302500E00080312000322009
:101A700088310A302500E000803120003220883192
:101A80000A302500E00080312000322088310A3001
:101A90002500E00080312000322088312500C60179
:101AA000C5014608013C031C752D031D5B2D45082F
:101AB0002B3C031C752D8031200089288831780843
:101AC000F40087302500450784002030463D85001E
:101AD000740880007408E0008031200032208831D2
:101AE0002500C50A0319C60A512D0A30D1008031DC
:101AF00020009B2088310A302500E0008031200042
:101B00003220883140302500E00080312000322032
:101B100088310A302500E0008031200032208831F1
:101B20002500C801C7014808013C031CBB2E031D4A
:101B30009D2D47082B3C031CBB2E87304707840094
:101B40002030483D85000008D000D10080312000C1
:101B5000EB2E8831701178187015701DB62E6B0839
:101B6000F80078082500C90020006308F700640821
:101B7000F8006508F9006608FA007A082500CD002B
:101B80007908CC007808CB007708CA002030D10053
:101B90007B30D0002030D3007F30D2002030D50001
:101BA0008330D4002000CD2821004E082500D3002A
:101BB00021004D082500D20021004C082500D1004D
:101BC00021004B082500D000D701D6017A30D5007E
:101BD0008830D400803120006D278831031DF62D18
:101BE0002100CE01CD01CC01CB0120002100520803
:101BF0002500D300210051082500D2002100500803
:101C00002500D10021004F082500D000D701D601C2
:101C10007A30D5008830D400803120006D2788319B
:101C2000031D182E2100D201D101D001CF012000C7
:101C30006B08F800780F1F2E2500C90120006308EB
:101C4000F7006408F8006508F9006608FA007A08E9
:101C50002500D3007908D2007808D1007708D00099
:101C6000500F3C2E510F3C2E520F3C2E530F3C2E4A
:101C7000CD01CC01CB01CA011F30230091000030FF
:101C80009200031004302500D0002000E1218930AB
:101C9000840021004E082500D30021004D082500B6
:101CA000D20021004C082500D10021004B0825005E
:101CB000D0000630D40020003D22233023009100C4
:101CC00000309200031005302500D0002000E121F3
:101CD00089308400210052082500D30021005108DA
:101CE0002500D200210050082500D10021004F0816
:101CF0002500D0000630D40020003D2227302300EC
:101D0000910000309200031406302500D00020001E
:101D1000E12125004908D0001830D1002000B72B60
:101D20002B3023009100003092000314073025006F
:101D3000D0002000E1214130840025004D08D3006F
:101D40004C08D2004B08D1004A08D0002000272CB4
:101D50000D302500E00080312000322088310A302B
:101D60002500E00080312000322088312500C70A9C
:101D70000319C80A932DF030D000FA30D100803119
:101D800020009B2088312500D00BBD2E2000162D71
:021D90006300EE
:020000040001F9
:04000E00C409FF3FE3
:00000001FF
;PIC16LF1518
;CRC=C86C  CREATED="22-Feb-21 14:26"
