:100000008831802C0000C2274F2AA010A0068A0643
:100010008A060A00CC303A102517363320266F1D89
:10002000A0122E1B6610F330741DA01264106832EB
:100030006F383A102536E4060A004E010F1E1E28BE
:100040004F01600842019A00400108000B088B1321
:1000500050019E171E1400000000891B8B171C08FE
:100060007F39031972284F01D20050011A084F013D
:10007000D30050011B084F01D4005208E00040019A
:100080001D204F01530850019A004F0154085001A0
:100090009B000B088B139E171E1400000000891B89
:1000A0008B171C0D1D0D7F39031972284F01D200CB
:1000B00050011A084F01D30050011B084F01D40012
:1000C0005208E00040011D204F01530850019A00E2
:1000D0004F01540850019B009A0A03199B0A4001E2
:1000E00026285001883140010F2D24308500E13051
:1000F00084000008031982285230F700F70B7E288D
:10010000800B7C2808004E018F1E842842011D08A8
:100110004001A00042011908F8004001A01C9428E9
:1001200042011D121D1640018831632D4F015808F0
:10013000403C0318A8285808463C031CA828413016
:1001400058020A3EFA01F8007A08F900BF28BF28D1
:100150005808603C0318B9285808663C031CB928A5
:10016000613058020A3EFA01F8007A08F900BF2807
:10017000BF2830305802FA01F8007A08F90040012F
:1001800008004F015708FA00560884007A088500D5
:1001900080080319E4285708FA00560884007A08F2
:1001A00085000008DA005908FA00580884007A0827
:1001B000850000085A02031DE428D60A0319D70A4D
:1001C000D80A0319D90AC2285708FA005608840029
:1001D00057088500FA010008F8007A08F900400184
:1001E00008004F016D082F3C0318FA286D08393CB0
:1001F0000318FC280030FD280130F80040010800F9
:1002000020305001AE00AA01AB01AC01AD012308C2
:10021000FA002208F9002108F8002008F70003106E
:10022000771C20292408AA0725080318250FAB07E7
:1002300026080318260FAC0727080318270FAD0759
:10024000AD0CAC0CAB0CAA0CFA0CF90CF80CF70CBE
:10025000AE0B0F29400108004F01E901E801E70159
:10026000E6016508FA00640884007A088500000841
:10027000EC00ED004001F120F80803197D29500140
:10028000A301A201A1010A30A0004F016908500199
:10029000A7004F0168085001A6004F0167085001F0
:1002A000A5004F0166085001A400400100217A0812
:1002B0004F01EF007908EE007808ED007708EC00B8
:1002C0006508FA006408E40A0319E50A84007A085C
:1002D00085000008EC070030ED3DEE3DEF3D30308D
:1002E0006C02E60000306D3BE70000306E3BE8003A
:1002F00000306F3BE900312940014F016608F700EB
:100300006708F8006808F9006908FA004001080069
:10031000F701F8014F015F0803106018F707F70CA9
:10032000F80CE018F707F70CF80C6019F707F70C52
:10033000F80CE019F707F70CF80C601AF707F70C40
:10034000F80CE01AF707F70CF80C601BF707F70C2E
:10035000F80CE01BF707F70CF80C40010800203000
:100360004F01D7006030D60058105708FA005608E1
:1003700084005708850000082D3C03195814581CA8
:10038000C429D60A0319D70A5708E5005608E4001D
:1003900040012C2105084F01DF000408DE00500158
:1003A000A301A201A1016430A0007A08A700790886
:1003B000A6007808A5007708A400400100214F019D
:1003C0005F0885005E0884007A08DC007908DB009D
:1003D0007808DA007708D9005708FA005608840030
:1003E000570885000008DE00ED004001F120F80804
:1003F0000319002A4F01D60A0319D70AEC29400134
:100400004F015708FA00560884007A088500000852
:100410002E3C031D482A56088400570885000131E8
:100420000008DE00ED004001F120F8080319492A18
:100430004F01560884005708850001313030000212
:10044000DE000A30DF005E08E00040018821780805
:100450004F01D9070030DA3DDB3DDC3D5608840012
:100460005708850002310008DE00ED004001F12050
:10047000F8080319492A4F015608840057088500D7
:10048000023130300002D9070030DA3DDB3DDC3D7F
:1004900040014F01581C5C2A5908003CF70000300D
:1004A000F8005A08F83B0030F9005B08F93B0030CF
:1004B000FA005C08FA3B642A5908F7005A08F80069
:1004C0005B08F9005C08FA004001080024085001AC
:1004D000A300400123085001A2004001220850015E
:1004E000A100400121085001A000A701A60103308E
:1004F000A500E830A4004001002108008318842AE8
:100500002530850005308400F701F801F901FA0172
:100510005001A501A601A701A80123082204210476
:1005200020040319C52A2030A90003104F01EC0D47
:10053000ED0DEE0DEF0D5001A50DA60DA70DA80DAB
:1005400023082802031DAE2A22082702031DAE2A13
:1005500021082602031DAE2A20082502031CBF2AFB
:100560002008A5022108031C210FA6022208031C53
:10057000220FA7022308031C230FA8020314F70D60
:10058000F80DF90DFA0DA90B952A2508800026080B
:10059000813F2708823F2808833F40010800203020
:1005A0004F01E5006030E40040012C217A084F0142
:1005B000DB007908DA007808D9007708D800050848
:1005C000E5000408E400831424308500F63084003C
:1005D0005B08EF005A08EE005908ED005808EC00DF
:1005E0005001A301A201A1016430A00040017E22BC
:1005F0004F016608F7006708F8006808F900690805
:10060000FA0065088500640884006908ED00680840
:10061000EC006708EB006608EA000508EF00040834
:10062000EE0069085001A3004F0168085001A200C4
:100630004F0167085001A1004F0166085001A0005A
:10064000A7010130A6008630A500A030A40040011B
:1006500000214F016F0885006E0884007A08DF00D2
:100660007908DE007808DD007708DC002030D7004C
:100670006030D6005708FA005608840057088500F5
:100680000008E400ED004001F120F80803194E2BAA
:100690004F01D60A0319D70A3A2B40014F015708D8
:1006A000FA00560884007A08850000082E3C031DD5
:1006B000BE2BE301E2012730E1001030E000D60A52
:1006C0000319D70A5708FA00560884007A088500EB
:1006D0000008E400ED004001F120F8080319BF2BE9
:1006E0004F015708FA00560884005708850030303B
:1006F0000002E4000508E6000408E5006308500174
:10070000A3004F0162085001A2004F01610850018F
:10071000A1004F0160085001A000A701A601A5019A
:100720004F0164085001A400400100214F016608F8
:100730008500650884007708DC077808DD3D7908C6
:10074000DE3D7A08DF3D83106308EF006208EE00AB
:100750006108ED006008EC005001A301A201A101B5
:100760000A30A00040017E227A084F01E300790898
:10077000E2007808E1007708E0005F2B4001831079
:100780004F015B08EF005A08EE005908ED005808C9
:10079000EC005001A301A201A1016430A0004001BE
:1007A0007E227A084F01E7007908E6007808E50024
:1007B0007708E40067085001A3004F016608500164
:1007C000A2004F0165085001A1004F0164085001CB
:1007D000A000A7010F30A6004230A5004030A400C1
:1007E000400100217A084F01E7007908E600780807
:1007F000E5007708E40003305C07E80000305D3D69
:10080000E90000305E3DEA0000305F3DEB00831000
:100810006B08EF006A08EE006908ED006808EC005C
:100820005001A301A201A1010630A00040017E22D7
:100830004F016408F7076508F83D6608F93D670849
:10084000FA3D40010800701CCD2C410130084F01D9
:10085000D800400196207908FA007808F900780D50
:100860004F01D6007A0DD700D60DD70DD60DD70D76
:10087000D60DD70DF030D605410131084F01D80013
:100880004001962078084F015607D40040016F08B8
:100890004F015402031DC92CF01CC92C410127082B
:1008A000A3002608A2002508A1002408A0002F0804
:1008B000AB002E08AA002D08A9002C08A80071087A
:1008C000013A40010319682C013A0319992CC52CEF
:1008D0003208AE003108AD003008AC002F08AB0084
:1008E0003A08B6003908B5003808B4003708B30034
:1008F0004208BE004108BD004008BC003F08BB00E4
:100900004A08C6004908C5004808C4004708C30093
:100910005A08D6005908D5005808D4005708D30003
:100920006208DE006108DD006008DC005F08DB00B3
:10093000C52C5208CE005108CD005008CC004F08FD
:10094000CB003208AE003108AD003008AC002F08F3
:10095000AB004208BE004108BD004008BC003F0893
:10096000BB004A08C6004908C5004808C40047083B
:10097000C3006E08EC006D08EB006A08E600690829
:10098000E5006808E4006708E3000130F800A12EE4
:100990004F010030F8004001A12EF208031DF82C91
:1009A00020304F01D7006030D6002030D9006F30A2
:1009B000D8004001C12078087904031DE22C0130E1
:1009C000F100F52C20304F01D7006030D6002030E8
:1009D000D9007530D8004001C12078087904031D82
:1009E000F32CF101F52C0230F1000030F800A12EBB
:1009F0007108023C03199D2E4101B008031D022D10
:100A000040019D2E710EF700F70DE030F7057708D5
:100A10007204FF3ED73E03189E2E293E4001A32EAE
:100A2000AF217A08B2007908B1007808B0007708E1
:100A3000AF0066227A084101A7007908A60078086D
:100A4000A5007708A4009E2EF01041013008413C1B
:100A50000319F0149E2ECF227A08C2007908C10033
:100A60007808C0007708BF0066227A084101AF000D
:100A70007908AE007808AD007708AC009E2E4101E1
:100A80003008533C031D512D4001BF09C009C10965
:100A9000C209BF0A0319C00A0319C10A0319C20A0D
:100AA00041019E2ECF227A08CA007908C900780831
:100AB000C8007708C70041019E2E41013008573C0D
:100AC000031D6F2D4001C709C809C909CA09C70A12
:100AD0000319C80A0319C90A0319CA0A41019E2E3B
:100AE000AF217A08DA007908D9007808D8007708A9
:100AF000D70041019E2EAF217A08E2007908E1007B
:100B00007808E0007708DF0041019E2E20304F0179
:100B1000E5006030E40040012C217A08BA00790831
:100B2000B9007808B8007708B70041019E2EF01090
:100B300041013008303C031CF0149E2E20304F0140
:100B4000D7006030D600DB01D9010A30DA00D801C5
:100B500056085704031DAF2D0030F800812E5B08A6
:100B6000DB0A560784000030573D85000008DC0092
:100B70005C082D3C031DC82D0130D9005B08DB0A41
:100B8000560784000030573D85000008DC00D52D55
:100B90005C082B3C031DD52D5B08DB0A560784003F
:100BA0000030573D85000008DC005C082F3C03182E
:100BB000772E5C08393C031C772E5C08303C031D03
:100BC000012E5B08560784000030573D8500000861
:100BD000783C0319F52D5B08560784000030573D1B
:100BE00085000008583C031D012E1030DA00DB0A96
:100BF0005B08DB0A560784000030573D850000087B
:100C0000DC005A080A3C031D252E5C082F3C031803
:100C1000242E5C08393C031C242E0A30DF005808BF
:100C2000E0004001882178084F01DE0030305C028E
:100C30005E07D8005B08DB0A560784000030573D8A
:100C400085000008DC00052E772E5A08103C031D95
:100C5000772E5C08603C0318342E5C087A3C031C39
:100C6000342E5C08DF39352E5C08DC005C082F3C34
:100C700003183E2E5C08393C0318462E5C08403CA5
:100C80000318772E5C08463C031C772E5C082F3C2B
:100C90000318572E5C08393C031C572E580EDE00F3
:100CA000F030DE0530305C025E07D800602E580E52
:100CB000DE00F030DE0541305C020A3E5E07D800FF
:100CC0005B08DB0A560784000030573D85000008AA
:100CD000DC005C08603C0318742E5C087A3C031C42
:100CE000742E5C08DF39752E5C08DC00362E590B3B
:100CF0007F2E5A080A3C031D7F2ED809D80A5808AF
:100D0000F8004001EE017808ED0041019E2EAF2170
:100D10007A08EA007908E9007808E8007708E7002F
:100D200041019E2EAF217A08D2007908D1007808BF
:100D3000D0007708CF0041019E2E41010030F8001D
:100D400040018031F52E0A108A140A158207102DF1
:100D50002B2D3F2D522D5D2D972D9E2D872E922EC2
:100D60009D2E9D2E9D2E9D2E9D2E9D2E9D2E9D2E2B
:100D70009D2E9D2E9D2E9D2E9D2E9D2E9D2E9D2E1B
:100D80009D2E9D2E9D2E9D2E9D2E9D2E9D2E102D99
:100D9000242D2B2D3F2D522D5D2D702D7B2D862D3D
:100DA0004F01521051082C3A40010319E42E213A08
:100DB0000319E82E073A0319E82E203A0319E82E02
:100DC0000E3A0319082F172F4F0151084001EF0663
:100DD00073080E3C031CFA2E603073078400203029
:100DE00085000318850A8001232C4F0152107818C2
:100DF00052144001F20AF30170104F0151082A3CCD
:100E000003197014003052180130F800322F4001DD
:100E1000F3017308F200EF010230F1007010F010DE
:100E200000304F0152180130F800322F4001730892
:100E30000D3C031C272F7308F30A603E840020300A
:100E400085000318850A4F01510880004001701881
:100E50002D2F4F0151084001EF0600304F0152186D
:100E60000130F80088314001AE2DB630F700FA01AC
:100E7000F901F8014F016008610462046304031D75
:100E8000432FF701502F0310F81B4F2FE00DE10DFA
:100E9000E20DE30DFA0DF90DF80DF70B432FF813E2
:100EA000400108004F015108D8005508D806D81F46
:100EB0005E2F03110310D11B0314912F5108D8008A
:100EC0005408D9005008D90203196C2FD81F912F4C
:100ED0000308013A8300912F5508D9005108D9021F
:100EE0000319782FD81F912F0308013A8300912FFF
:100EF0005608D9005208D9020319842FD81F912F00
:100F00000308013A8300912F5708D9005308D902EA
:100F10000319902FD81F912F0308013A8300912FB6
:100F20000310400108000B088B1350019E171E147C
:100F300000000000891B8B170318C62F1C087F397F
:100F40004F01D20050011A084F01D30050011B0875
:100F50004F01D4005208E00040011D204F0153080A
:100F600050019A004F01540850019B000B088B134D
:100F70009E171E1400000000891B8B174F01D00B19
:100F8000C22FC42F5001C62FE92F50011C0D1D0D7B
:100F90007F394F01D20050011A084F01D300500190
:100FA0001B084F01D4005208E00040011D204F01F2
:100FB000530850019A004F01540850019B009A0AAF
:100FC00003199B0A03104F01D00BE72FE92F4001B3
:060FD000932F4001080010
:101000004F0160080319C728EE0064080319C728B8
:10101000EE0203180C2811287F30EE070318C728AA
:1010200017288130EE02031CC7280319C7286E0851
:10103000F700F801F901FA01ED016108EC00EC1785
:101040006208EB006308EA001930EE006708EA0264
:1010500003183A280130EB0203183A28EC0203186F
:101060003A28ED0203183A28ED0AEC0AEB0A670861
:10107000EA076C286608EB02031855280130EC02D9
:1010800003185528ED0203185528ED0AEC0A6608E6
:10109000EB076708EA07031C6C28EB0A031D6C28A2
:1010A000EC0A031D6C28ED0A6C2865088038EC02F8
:1010B00003186B280130ED0203186B28ED0A650850
:1010C0008038EC076608EB07031C4928EC0A031D6F
:1010D0004928ED0A49287A14EE0B6F287A28031064
:1010E000EA0DEB0DEC0DED0D0310FA0DF90DF80DF9
:1010F000EF0D26286F1C82280310F80CF90CFA0C4F
:10110000EF0C8528F7030319C728EF1BAE2803103F
:10111000EA0DEB0DEC0DED0D6708EA0203189A28B5
:101120000130EB0203189A28EC0203189A28ED020A
:10113000031CBD286608EB020318A5280130EC0249
:101140000318A528ED02031CBD2865088038EC02B1
:101150000318AE280130ED02031CBD28FA0A031D56
:10116000BD28F90A031DBD28F80A031DBD28F70A8A
:101170000319C728F80CF90CFA0C6108EE00650891
:10118000EE06EE1FC528F817CB28F813CB28F70179
:10119000F801F901FA014001080024304F01DF0095
:1011A000E630DE002430E100EA30E0005508E300DC
:1011B0005408E2005E085F040319F2285F08FA0091
:1011C0005E0884005F08850040013B088000013113
:1011D0003C08800001313D08800001313E0880005C
:1011E0003D314F016008610403190A296108FA00C2
:1011F00060088400610885004001430880000131D7
:101200004408800001314508800001314608800013
:101210003D314F016208630403195A296308FA003B
:101220006208E4006308E5004101280F2329290F23
:1012300023292A0F23292B0F2329FF30F700F80039
:10124000F900FA00452980314001662288317A0888
:101250004F01E9007908E8007808E7007708E60020
:10126000410128084F016602F700410129084F019A
:10127000673BF80041012A084F01683BF900410132
:101280002B084F01693BFA0041017A084F01E90040
:101290007908E8007808E7007708E6006508850027
:1012A00064088400660880006708813F6808823F00
:1012B0006908833F5108FA005008840051088500EE
:1012C000560F75295708C93C031D752958089A3CC3
:1012D000031D752959083B3C031D75298830F7000B
:1012E0007A30F800F901FA0194295908E300580806
:1012F000E2005708E1005608E00080314001352740
:1013000088317A084F01E3007908E2007808E100AB
:101310007708E000E7012430E6007430E500923001
:10132000E400400100204F01770880007808813FE9
:101330007908823F7A08833F5308FA0052088400F4
:1013400053088500560FB7295708C93C031DB72914
:1013500058089A3C031DB72959083B3C031DB7297F
:101360008830F7007A30F800F901FA01D6295D08D3
:10137000E3005C08E2005B08E1005A08E00080310D
:101380004001352788317A084F01E3007908E200EF
:101390007808E1007708E000E7012430E6007430C7
:1013A000E5009230E400400100204F017708800002
:1013B0007808813F7908823F7A08833F883140016D
:1013C000D92D04084F01D8005408DA000319742AF3
:1013D0005308E3005208E2005108E1005008E00021
:1013E000E701E6012030E5008230E40060080319DF
:1013F000662AEB0064080319662AEB070318072A1C
:101400007F30EB02031C662A0319662A0B2A8130FF
:10141000EB070318662A6B08F700F801F901FA01D7
:101420006108EF00EF176208EE006308ED00183066
:10143000EB00EC016D1C342A6708FA07031C262A0E
:10144000F90A031D262AF80A0319EC176608F9079A
:10145000031C2D2AF80A0319EC176508E200E217AD
:101460006208F8070318EC17EC0DF80CF90CFA0CED
:10147000EF0CEE0CED0C0310EB0B192A0130F70703
:101480000318662AF81B4B2AEF0DFA0DF90DF80D1B
:10149000F7030319662AEF1F5C2AFA0A031D5C2A68
:1014A000F90A031D5C2AF80A031D5C2AF80CF90CE2
:1014B000FA0CF70A0319662A6108EC006508EC06C5
:1014C000EC1F642AF8176A2AF8136A2AF701F80150
:1014D000F901FA017A08D3007908D2007808D1001E
:1014E0007708D000DA0BE8295308E3005208E2003D
:1014F0005108E1005008E0006008B63CE000FA0145
:101500006108E400E1170310E10CE20CE30CFA0CB3
:10151000F90CF80CF70CE00B832AE41F9A2AF70960
:10152000F809F909FA09F70A0319F80A0319F90A77
:101530000319FA0A7A08D3007908D2007808D10092
:101540007708D000D31FB12AD803D816D009D10903
:10155000D209D309D00A0319D10A0319D20A0319EF
:10156000D30A3B30DF009A30DE00CA30DD00DC01F8
:101570000A30DA0054080319D80A8314243085008D
:10158000E03084005308EF005208EE005108ED00EF
:101590005008EC005F085001A3004F015E085001A5
:1015A000A2004F015D085001A1004F015C085001ED
:1015B000A000803140017E2288317808F708031DA1
:1015C000F82A4F01540A5A02031DE82A4001F82A5A
:1015D00058080319FB2A0F395A020319F12A031874
:1015E0003B2BD81B3B2B581BFB2A2030332B4001B5
:1015F00020304F01D805D81E0D2BD8125408031DDA
:10160000D8037708D8002D30E000803140011D203C
:1016100088314F015808F700D80154085A02031DB9
:101620001F2B7708D8002E30E000803140011D20AC
:1016300088314F015808F7002030D805003030308D
:10164000D81E332BD8125408031DD8037708D800AE
:101650002D30E000803140011D2088314F015808B5
:10166000F700D8013030F7077708E00080314001FB
:101670001D2088314F0183105F08EF005E08EE00E7
:101680005D08ED005C08EC005001A301A201A1017E
:101690000A30A000803140017E2288317A084F0153
:1016A000DF007908DE007808DD007708DC00DA0B5F
:1016B000BD2A400108004F015908F80158020318DB
:1016C000642B5808F700702BF7010830DA00D80DAA
:1016D000F70D590877020318F700F80DDA0B672B9E
:1016E0004001080020304F01511E3030D400500816
:1016F000F700D01F832BF709F70A7708D0002D30A9
:10170000D400D11751145008D8006430D9004001DA
:101710005B2377084F01D00030307807D5005008A0
:10172000D8000A30D90040015B23303077074F01E1
:10173000D70030307807D6005408F7003030550213
:101740000319A62BD114D11B5115BA2B5408D5005F
:101750002030D400303056020319B22B5114D11B63
:10176000D114BA2B031D5114031DBA2B5508D600F2
:101770002030D5005119C12BD118C82B5118CF2BAF
:10178000D62B5408E000803140011D2088314F01E4
:101790005508E000803140011D2088314F01560876
:1017A000E000803140011D2088314F015708E000E2
:1017B000803140011D20883188319B2E04084F0163
:1017C000D800D31FF02BD803D816D009D109D209DD
:1017D000D309D00A0319D10A0319D20A0319D30A6B
:1017E0003B30DF009A30DE00CA30DD00DC010A3019
:1017F000DA00831424308500E03084005308EF00C1
:101800005208EE005108ED005008EC005F0850014E
:10181000A3004F015E085001A2004F015D08500176
:10182000A1004F015C085001A000803140017E22E0
:1018300088317808F708031D342C4F015A08013A03
:10184000031D242C4001342C58080319372C0F3960
:101850005A0203192D2C03185F2CD81B5F2C581B20
:10186000372C2030572C400120304F01D805D81E8E
:10187000462CD8127708D8002D30E0008031400186
:101880001D2088314F015808F700D8013030D81E8C
:10189000572CD8127708D8002D30E0008031400155
:1018A0001D2088314F015808F700D8013030F70764
:1018B0007708E000803140011D2088314F018310FE
:1018C0005F08EF005E08EE005D08ED005C08EC00CC
:1018D0005001A301A201A1010A30A0008031400102
:1018E0007E2288317A084F01DF007908DE0078080F
:1018F000DD007708DC00DA0BF92B88314001B52ECA
:1019000055307D018F00AA308F000F101730CB00AB
:101910000D307E01A60055307D018F00AA308F006A
:101920000F14510192018F019101930160308D00DC
:101930004001A00142019F1519309B0000309C001E
:10194000A6309E0090309D004001A401A301A20199
:10195000A10170114F01C401C3017A018C018D01F5
:101960008E018F0190019101920193017E01B801D6
:10197000C301CE01530191019201930190019501A0
:101980009601970194014001A501A601473041014C
:10199000BF005030C0005230C1004D30C200433053
:1019A000C300C4014730C5005030C6004730C700EF
:1019B000C8004130C900CA014E01AF017A01970148
:1019C000950194018D018C010A304F01E0008031B6
:1019D00040011D2088310A304F01E0008031400174
:1019E0001D2088310A304F01E000803140011D2068
:1019F00088310A304F01E000803140011D208831DC
:101A00000A304F01E000803140011D208831033051
:101A100050019A0000309B00803140012628883117
:101A2000F0304F01D000FA30D100803140017520F4
:101A300088314F01D00B132D0A30E0008031400176
:101A40001D2088310A304F01E000803140011D2007
:101A500088310A304F01E000803140011D2088317B
:101A60000A304F01E000803140011D2088310A30EA
:101A70004F01E000803140011D2088310A304F01C4
:101A8000E000803140011D2088310A304F01E00024
:101A9000803140011D2088310A304F01E000803143
:101AA00040011D2088314F01C601C5014608013C97
:101AB000031C7A2D031D602D4508F33C031C7A2D71
:101AC00080314001832888317808F4007B304F0151
:101AD000450784002030463D850074088000740866
:101AE000E000803140011D2088314F01C50A0319F3
:101AF000C60A562D0A30D100803140017520883148
:101B00000A304F01E000803140011D208831403013
:101B10004F01E000803140011D2088310A304F0123
:101B2000E000803140011D2088314F01C801C7010C
:101B30004808013C031CC82E031DA22D4708F33C96
:101B4000031CC82E7B30470784002030483D8500A9
:101B50000008D000D10080314001D02E88317011B2
:101B600078187015701DC32E6B08F80078084F01A7
:101B7000C90040016308F7006408F8006508F9002F
:101B80006608FA007A084F01CD007908CC00780881
:101B9000CB007708CA002430D1006330D000243055
:101BA000D3006730D2002430D5006B30D400400120
:101BB000CD284E0126084F01D3004E0125084F01C4
:101BC000D2004E0124084F01D1004E0123084F01DD
:101BD000D000D701D6017A30D5008830D4008031CA
:101BE000400152278831031DFB2D4E01A601A5019E
:101BF000A401A30140014E012A084F01D3004E0168
:101C000029084F01D2004E0128084F01D1004E0192
:101C100027084F01D000D701D6017A30D50088308F
:101C2000D4008031400152278831031D1D2E4E0102
:101C3000AA01A901A801A70140016B08F800780FCB
:101C4000242E4F01C90140016308F7006408F80021
:101C50006508F9006608FA007A084F01D300790890
:101C6000D2007808D1007708D000500F412E510FD4
:101C7000412E520F412E530F412ECD01CC01CB01ED
:101C8000CA010A3050019A0000309B000310043052
:101C90004F01D00080314001932788318930840082
:101CA0004E0126084F01D3004E0125084F01D200F6
:101CB0004E0124084F01D1004E0123084F01D000EE
:101CC0000630D4004001E1210E3050019A0000306E
:101CD0009B00031005304F01D00080314001932755
:101CE0008831893084004E012A084F01D3004E010B
:101CF00029084F01D2004E0128084F01D1004E01A2
:101D000027084F01D0000630D4004001E1211230F5
:101D100050019A0000309B00031406304F01D000A0
:101D200080314001932788314F014908D000183095
:101D3000D1004001722B163050019A0000309B00F8
:101D4000031407304F01D0008031400193278831C0
:101D5000413084004F014D08D3004C08D2004B089D
:101D6000D1004A08D0004001DE2B0D304F01E000C9
:101D7000803140011D2088310A304F01E000803160
:101D800040011D2088314F01C70A0319C80A982D48
:061D90004001102D63006C
:020000040001F9
:0A000E00E83B3D3B9F3FFF3FFF3FF3
:00000001FF
;PIC16LF19156
;CRC=BD12  CREATED="22-Feb-21 12:47"
